{
    "_format": "hh-sol-artifact-1",
    "contractName": "Bridge",
    "sourceName": "contracts/bridge/Bridge.sol",
    "abi": [
        {
            "inputs": [
                {
                    "internalType": "address",
                    "name": "_wrappedTokenFactory",
                    "type": "address"
                }
            ],
            "stateMutability": "nonpayable",
            "type": "constructor"
        },
        {
            "anonymous": false,
            "inputs": [
                {
                    "indexed": true,
                    "internalType": "address",
                    "name": "previousOwner",
                    "type": "address"
                },
                {
                    "indexed": true,
                    "internalType": "address",
                    "name": "newOwner",
                    "type": "address"
                }
            ],
            "name": "OwnershipTransferred",
            "type": "event"
        },
        {
            "anonymous": false,
            "inputs": [
                {
                    "indexed": false,
                    "internalType": "address",
                    "name": "burnerAddress",
                    "type": "address"
                },
                {
                    "indexed": false,
                    "internalType": "address",
                    "name": "originTokenAddress",
                    "type": "address"
                },
                {
                    "indexed": false,
                    "internalType": "uint256",
                    "name": "amount",
                    "type": "uint256"
                },
                {
                    "indexed": false,
                    "internalType": "uint256",
                    "name": "targetChainId",
                    "type": "uint256"
                },
                {
                    "indexed": false,
                    "internalType": "address",
                    "name": "releaserAddress",
                    "type": "address"
                }
            ],
            "name": "TokenBurned",
            "type": "event"
        },
        {
            "anonymous": false,
            "inputs": [
                {
                    "indexed": false,
                    "internalType": "address",
                    "name": "claimerAddress",
                    "type": "address"
                },
                {
                    "indexed": false,
                    "internalType": "address",
                    "name": "wrappedTokenAddress",
                    "type": "address"
                },
                {
                    "indexed": false,
                    "internalType": "uint256",
                    "name": "amount",
                    "type": "uint256"
                }
            ],
            "name": "TokenClaimed",
            "type": "event"
        },
        {
            "anonymous": false,
            "inputs": [
                {
                    "indexed": false,
                    "internalType": "address",
                    "name": "lockerAddress",
                    "type": "address"
                },
                {
                    "indexed": false,
                    "internalType": "address",
                    "name": "originTokenAddress",
                    "type": "address"
                },
                {
                    "indexed": false,
                    "internalType": "uint256",
                    "name": "amount",
                    "type": "uint256"
                },
                {
                    "indexed": false,
                    "internalType": "uint256",
                    "name": "targetChainId",
                    "type": "uint256"
                },
                {
                    "indexed": false,
                    "internalType": "address",
                    "name": "claimerAddress",
                    "type": "address"
                }
            ],
            "name": "TokenLocked",
            "type": "event"
        },
        {
            "anonymous": false,
            "inputs": [
                {
                    "indexed": false,
                    "internalType": "address",
                    "name": "releaserAddress",
                    "type": "address"
                },
                {
                    "indexed": false,
                    "internalType": "address",
                    "name": "originTokenAddress",
                    "type": "address"
                },
                {
                    "indexed": false,
                    "internalType": "uint256",
                    "name": "amount",
                    "type": "uint256"
                }
            ],
            "name": "TokenReleased",
            "type": "event"
        },
        {
            "inputs": [
                {
                    "internalType": "address",
                    "name": "claimer",
                    "type": "address"
                },
                {
                    "internalType": "uint256",
                    "name": "sourceChainId",
                    "type": "uint256"
                },
                {
                    "internalType": "address",
                    "name": "token",
                    "type": "address"
                },
                {
                    "internalType": "uint256",
                    "name": "amount",
                    "type": "uint256"
                }
            ],
            "name": "addClaimableToken",
            "outputs": [],
            "stateMutability": "nonpayable",
            "type": "function"
        },
        {
            "inputs": [
                {
                    "internalType": "address",
                    "name": "releaser",
                    "type": "address"
                },
                {
                    "internalType": "address",
                    "name": "token",
                    "type": "address"
                },
                {
                    "internalType": "uint256",
                    "name": "amount",
                    "type": "uint256"
                }
            ],
            "name": "addReleasableToken",
            "outputs": [],
            "stateMutability": "nonpayable",
            "type": "function"
        },
        {
            "inputs": [
                {
                    "internalType": "address",
                    "name": "wrappedToken",
                    "type": "address"
                },
                {
                    "internalType": "uint256",
                    "name": "amount",
                    "type": "uint256"
                },
                {
                    "internalType": "uint256",
                    "name": "targetChainId",
                    "type": "uint256"
                },
                {
                    "internalType": "address",
                    "name": "targetAddress",
                    "type": "address"
                }
            ],
            "name": "burnToken",
            "outputs": [],
            "stateMutability": "nonpayable",
            "type": "function"
        },
        {
            "inputs": [
                {
                    "internalType": "address",
                    "name": "token",
                    "type": "address"
                },
                {
                    "internalType": "uint256",
                    "name": "sourceChainId",
                    "type": "uint256"
                }
            ],
            "name": "claimToken",
            "outputs": [],
            "stateMutability": "nonpayable",
            "type": "function"
        },
        {
            "inputs": [
                {
                    "internalType": "address",
                    "name": "",
                    "type": "address"
                },
                {
                    "internalType": "uint256",
                    "name": "",
                    "type": "uint256"
                },
                {
                    "internalType": "address",
                    "name": "",
                    "type": "address"
                }
            ],
            "name": "claimableTokens",
            "outputs": [
                {
                    "internalType": "uint256",
                    "name": "",
                    "type": "uint256"
                }
            ],
            "stateMutability": "view",
            "type": "function"
        },
        {
            "inputs": [
                {
                    "internalType": "address",
                    "name": "",
                    "type": "address"
                }
            ],
            "name": "feeBalances",
            "outputs": [
                {
                    "internalType": "uint256",
                    "name": "",
                    "type": "uint256"
                }
            ],
            "stateMutability": "view",
            "type": "function"
        },
        {
            "inputs": [
                {
                    "internalType": "address",
                    "name": "token",
                    "type": "address"
                },
                {
                    "internalType": "uint256",
                    "name": "amount",
                    "type": "uint256"
                },
                {
                    "internalType": "uint256",
                    "name": "targetChainId",
                    "type": "uint256"
                },
                {
                    "internalType": "address",
                    "name": "targetAddress",
                    "type": "address"
                }
            ],
            "name": "lockToken",
            "outputs": [],
            "stateMutability": "nonpayable",
            "type": "function"
        },
        {
            "inputs": [
                {
                    "internalType": "uint256",
                    "name": "",
                    "type": "uint256"
                },
                {
                    "internalType": "address",
                    "name": "",
                    "type": "address"
                }
            ],
            "name": "originTokenByWrappedTokenByChain",
            "outputs": [
                {
                    "internalType": "address",
                    "name": "",
                    "type": "address"
                }
            ],
            "stateMutability": "view",
            "type": "function"
        },
        {
            "inputs": [],
            "name": "owner",
            "outputs": [
                {
                    "internalType": "address",
                    "name": "",
                    "type": "address"
                }
            ],
            "stateMutability": "view",
            "type": "function"
        },
        {
            "inputs": [
                {
                    "internalType": "address",
                    "name": "",
                    "type": "address"
                },
                {
                    "internalType": "address",
                    "name": "",
                    "type": "address"
                }
            ],
            "name": "releasableTokens",
            "outputs": [
                {
                    "internalType": "uint256",
                    "name": "",
                    "type": "uint256"
                }
            ],
            "stateMutability": "view",
            "type": "function"
        },
        {
            "inputs": [
                {
                    "internalType": "address",
                    "name": "originalToken",
                    "type": "address"
                }
            ],
            "name": "releaseToken",
            "outputs": [],
            "stateMutability": "nonpayable",
            "type": "function"
        },
        {
            "inputs": [],
            "name": "renounceOwnership",
            "outputs": [],
            "stateMutability": "nonpayable",
            "type": "function"
        },
        {
            "inputs": [
                {
                    "internalType": "uint8",
                    "name": "_feePercentage",
                    "type": "uint8"
                }
            ],
            "name": "setFeePercentage",
            "outputs": [],
            "stateMutability": "nonpayable",
            "type": "function"
        },
        {
            "inputs": [
                {
                    "internalType": "address",
                    "name": "newOwner",
                    "type": "address"
                }
            ],
            "name": "transferOwnership",
            "outputs": [],
            "stateMutability": "nonpayable",
            "type": "function"
        },
        {
            "inputs": [
                {
                    "internalType": "address",
                    "name": "token",
                    "type": "address"
                },
                {
                    "internalType": "uint256",
                    "name": "amount",
                    "type": "uint256"
                },
                {
                    "internalType": "address",
                    "name": "recipient",
                    "type": "address"
                }
            ],
            "name": "withdrawTokenFee",
            "outputs": [],
            "stateMutability": "nonpayable",
            "type": "function"
        },
        {
            "inputs": [
                {
                    "internalType": "uint256",
                    "name": "",
                    "type": "uint256"
                },
                {
                    "internalType": "address",
                    "name": "",
                    "type": "address"
                }
            ],
            "name": "wrappedTokenByOriginTokenByChain",
            "outputs": [
                {
                    "internalType": "address",
                    "name": "",
                    "type": "address"
                }
            ],
            "stateMutability": "view",
            "type": "function"
        },
        {
            "inputs": [],
            "name": "wrappedTokenFactory",
            "outputs": [
                {
                    "internalType": "contract IWrappedTokenFactory",
                    "name": "",
                    "type": "address"
                }
            ],
            "stateMutability": "view",
            "type": "function"
        }
    ],
    "bytecode": "0x60806040523480156200001157600080fd5b506040516200283f3803806200283f8339818101604052810190620000379190620001d5565b620000576200004b6200009f60201b60201c565b620000a760201b60201c565b80600160006101000a81548173ffffffffffffffffffffffffffffffffffffffff021916908373ffffffffffffffffffffffffffffffffffffffff1602179055505062000207565b600033905090565b60008060009054906101000a900473ffffffffffffffffffffffffffffffffffffffff169050816000806101000a81548173ffffffffffffffffffffffffffffffffffffffff021916908373ffffffffffffffffffffffffffffffffffffffff1602179055508173ffffffffffffffffffffffffffffffffffffffff168173ffffffffffffffffffffffffffffffffffffffff167f8be0079c531659141344cd1fd0a4f28419497f9722a3daafe3b4186f6b6457e060405160405180910390a35050565b600080fd5b600073ffffffffffffffffffffffffffffffffffffffff82169050919050565b60006200019d8262000170565b9050919050565b620001af8162000190565b8114620001bb57600080fd5b50565b600081519050620001cf81620001a4565b92915050565b600060208284031215620001ee57620001ed6200016b565b5b6000620001fe84828501620001be565b91505092915050565b61262880620002176000396000f3fe608060405234801561001057600080fd5b506004361061010b5760003560e01c806396e22a74116100a2578063d1e3acaa11610071578063d1e3acaa146102a0578063e545f941146102bc578063eaa7c826146102d8578063f2fde38b146102f6578063f602614e146103125761010b565b806396e22a741461021c5780639deac6641461024c578063a5766aa614610268578063b91d188f146102845761010b565b806353afc025116100de57806353afc025146101a85780635f101dba146101d8578063715018a6146101f45780638da5cb5b146101fe5761010b565b80631698755f1461011057806323b859dd1461012c57806327b00a4b14610148578063374efba414610178575b600080fd5b61012a60048036038101906101259190611837565b610342565b005b61014660048036038101906101419190611877565b6106ac565b005b610162600480360381019061015d91906118de565b61075e565b60405161016f9190611940565b60405180910390f35b610192600480360381019061018d919061195b565b610790565b60405161019f91906119aa565b60405180910390f35b6101c260048036038101906101bd91906119c5565b6107d2565b6040516101cf9190611940565b60405180910390f35b6101f260048036038101906101ed91906119f2565b6107ea565b005b6101fc610a5d565b005b610206610a71565b60405161021391906119aa565b60405180910390f35b6102366004803603810190610231919061195b565b610a9a565b60405161024391906119aa565b60405180910390f35b61026660048036038101906102619190611a59565b610adc565b005b610282600480360381019061027d9190611ae5565b610b7c565b005b61029e600480360381019061029991906118de565b610ba2565b005b6102ba60048036038101906102b591906119f2565b610c30565b005b6102d660048036038101906102d191906119c5565b610ebf565b005b6102e0611136565b6040516102ed9190611b71565b60405180910390f35b610310600480360381019061030b91906119c5565b61115c565b005b61032c60048036038101906103279190611b8c565b6111df565b6040516103399190611940565b60405180910390f35b81600073ffffffffffffffffffffffffffffffffffffffff168173ffffffffffffffffffffffffffffffffffffffff16036103b2576040517f08c379a00000000000000000000000000000000000000000000000000000000081526004016103a990611c4f565b60405180910390fd5b8160008110156103f7576040517f08c379a00000000000000000000000000000000000000000000000000000000081526004016103ee90611ce1565b60405180910390fd5b6000600560003373ffffffffffffffffffffffffffffffffffffffff1673ffffffffffffffffffffffffffffffffffffffff168152602001908152602001600020600085815260200190815260200160002060008673ffffffffffffffffffffffffffffffffffffffff1673ffffffffffffffffffffffffffffffffffffffff168152602001908152602001600020549050600081116104cc576040517f08c379a00000000000000000000000000000000000000000000000000000000081526004016104c390611d4d565b60405180910390fd5b6104d68486611204565b6104f45760006104e5866112ae565b90506104f2858783611522565b505b60006003600086815260200190815260200160002060008773ffffffffffffffffffffffffffffffffffffffff1673ffffffffffffffffffffffffffffffffffffffff16815260200190815260200160002060009054906101000a900473ffffffffffffffffffffffffffffffffffffffff1690508073ffffffffffffffffffffffffffffffffffffffff166340c10f1933846040518363ffffffff1660e01b81526004016105a4929190611d6d565b600060405180830381600087803b1580156105be57600080fd5b505af11580156105d2573d6000803e3d6000fd5b505050506000600560003373ffffffffffffffffffffffffffffffffffffffff1673ffffffffffffffffffffffffffffffffffffffff168152602001908152602001600020600087815260200190815260200160002060008873ffffffffffffffffffffffffffffffffffffffff1673ffffffffffffffffffffffffffffffffffffffff168152602001908152602001600020819055507f4831bdd9dcf3048a28319ce81d3cab7a15366bcf449bc7803a539107440809cc33828460405161069c93929190611d96565b60405180910390a1505050505050565b6106b4611645565b80600560008673ffffffffffffffffffffffffffffffffffffffff1673ffffffffffffffffffffffffffffffffffffffff168152602001908152602001600020600085815260200190815260200160002060008473ffffffffffffffffffffffffffffffffffffffff1673ffffffffffffffffffffffffffffffffffffffff16815260200190815260200160002060008282546107519190611dfc565b9250508190555050505050565b600560205282600052604060002060205281600052604060002060205280600052604060002060009250925050505481565b60046020528160005260406000206020528060005260406000206000915091509054906101000a900473ffffffffffffffffffffffffffffffffffffffff1681565b60026020528060005260406000206000915090505481565b83600073ffffffffffffffffffffffffffffffffffffffff168173ffffffffffffffffffffffffffffffffffffffff160361085a576040517f08c379a000000000000000000000000000000000000000000000000000000000815260040161085190611c4f565b60405180910390fd5b836000811161089e576040517f08c379a000000000000000000000000000000000000000000000000000000000815260040161089590611ea2565b60405180910390fd5b8360008110156108e3576040517f08c379a00000000000000000000000000000000000000000000000000000000081526004016108da90611ce1565b60405180910390fd5b83600073ffffffffffffffffffffffffffffffffffffffff168173ffffffffffffffffffffffffffffffffffffffff1603610953576040517f08c379a000000000000000000000000000000000000000000000000000000000815260040161094a90611f34565b60405180910390fd5b60006064600060149054906101000a900460ff1660ff16896109759190611f54565b61097f9190611fc5565b90506000818961098f9190611ff6565b90508973ffffffffffffffffffffffffffffffffffffffff166323b872dd33308c6040518463ffffffff1660e01b81526004016109ce93929190611d96565b6020604051808303816000875af11580156109ed573d6000803e3d6000fd5b505050506040513d601f19601f82011682018060405250810190610a119190612062565b507f69c01c713122ce8d47ecc4120688912ca04f2f4622265494db0fc21dc81453de338b838b8b604051610a4995949392919061208f565b60405180910390a150505050505050505050565b610a65611645565b610a6f60006116c3565b565b60008060009054906101000a900473ffffffffffffffffffffffffffffffffffffffff16905090565b60036020528160005260406000206020528060005260406000206000915091509054906101000a900473ffffffffffffffffffffffffffffffffffffffff1681565b610ae4611645565b80600660008573ffffffffffffffffffffffffffffffffffffffff1673ffffffffffffffffffffffffffffffffffffffff16815260200190815260200160002060008473ffffffffffffffffffffffffffffffffffffffff1673ffffffffffffffffffffffffffffffffffffffff1681526020019081526020016000206000828254610b709190611dfc565b92505081905550505050565b610b84611645565b80600060146101000a81548160ff021916908360ff16021790555050565b610baa611645565b8273ffffffffffffffffffffffffffffffffffffffff166323b872dd3083856040518463ffffffff1660e01b8152600401610be793929190611d96565b6020604051808303816000875af1158015610c06573d6000803e3d6000fd5b505050506040513d601f19601f82011682018060405250810190610c2a9190612062565b50505050565b83600073ffffffffffffffffffffffffffffffffffffffff168173ffffffffffffffffffffffffffffffffffffffff1603610ca0576040517f08c379a0000000000000000000000000000000000000000000000000000000008152600401610c9790611c4f565b60405180910390fd5b8360008111610ce4576040517f08c379a0000000000000000000000000000000000000000000000000000000008152600401610cdb90611ea2565b60405180910390fd5b836000811015610d29576040517f08c379a0000000000000000000000000000000000000000000000000000000008152600401610d2090611ce1565b60405180910390fd5b83600073ffffffffffffffffffffffffffffffffffffffff168173ffffffffffffffffffffffffffffffffffffffff1603610d99576040517f08c379a0000000000000000000000000000000000000000000000000000000008152600401610d9090611f34565b60405180910390fd5b8773ffffffffffffffffffffffffffffffffffffffff16639dc29fac33896040518363ffffffff1660e01b8152600401610dd4929190611d6d565b600060405180830381600087803b158015610dee57600080fd5b505af1158015610e02573d6000803e3d6000fd5b505050507f1a5cf775fc8b36dc7c6ac43373161f43d8d77f9cedabcebfc24760831e787d41336004600089815260200190815260200160002060008b73ffffffffffffffffffffffffffffffffffffffff1673ffffffffffffffffffffffffffffffffffffffff16815260200190815260200160002060009054906101000a900473ffffffffffffffffffffffffffffffffffffffff16898989604051610ead95949392919061208f565b60405180910390a15050505050505050565b80600073ffffffffffffffffffffffffffffffffffffffff168173ffffffffffffffffffffffffffffffffffffffff1603610f2f576040517f08c379a0000000000000000000000000000000000000000000000000000000008152600401610f2690611c4f565b60405180910390fd5b6000600660003373ffffffffffffffffffffffffffffffffffffffff1673ffffffffffffffffffffffffffffffffffffffff16815260200190815260200160002060008473ffffffffffffffffffffffffffffffffffffffff1673ffffffffffffffffffffffffffffffffffffffff16815260200190815260200160002054905060008111610ff3576040517f08c379a0000000000000000000000000000000000000000000000000000000008152600401610fea9061212e565b60405180910390fd5b8273ffffffffffffffffffffffffffffffffffffffff166323b872dd3033846040518463ffffffff1660e01b815260040161103093929190611d96565b6020604051808303816000875af115801561104f573d6000803e3d6000fd5b505050506040513d601f19601f820116820180604052508101906110739190612062565b506000600660003373ffffffffffffffffffffffffffffffffffffffff1673ffffffffffffffffffffffffffffffffffffffff16815260200190815260200160002060008573ffffffffffffffffffffffffffffffffffffffff1673ffffffffffffffffffffffffffffffffffffffff168152602001908152602001600020819055507fa5fa891a402945a5916b3b11763e3446525ced0e1d55a45cb3d3024f22ce448633848360405161112993929190611d96565b60405180910390a1505050565b600160009054906101000a900473ffffffffffffffffffffffffffffffffffffffff1681565b611164611645565b600073ffffffffffffffffffffffffffffffffffffffff168173ffffffffffffffffffffffffffffffffffffffff16036111d3576040517f08c379a00000000000000000000000000000000000000000000000000000000081526004016111ca906121c0565b60405180910390fd5b6111dc816116c3565b50565b6006602052816000526040600020602052806000526040600020600091509150505481565b60008073ffffffffffffffffffffffffffffffffffffffff166003600085815260200190815260200160002060008473ffffffffffffffffffffffffffffffffffffffff1673ffffffffffffffffffffffffffffffffffffffff16815260200190815260200160002060009054906101000a900473ffffffffffffffffffffffffffffffffffffffff1673ffffffffffffffffffffffffffffffffffffffff161415905092915050565b60008082905060008173ffffffffffffffffffffffffffffffffffffffff166306fdde036040518163ffffffff1660e01b8152600401600060405180830381865afa158015611301573d6000803e3d6000fd5b505050506040513d6000823e3d601f19601f8201168201806040525081019061132a9190612341565b905060008273ffffffffffffffffffffffffffffffffffffffff166395d89b416040518163ffffffff1660e01b8152600401600060405180830381865afa158015611379573d6000803e3d6000fd5b505050506040513d6000823e3d601f19601f820116820180604052508101906113a29190612341565b9050600080600160009054906101000a900473ffffffffffffffffffffffffffffffffffffffff1673ffffffffffffffffffffffffffffffffffffffff1684846040516024016113f39291906123ce565b6040516020818303038152906040527ff7c43b18000000000000000000000000000000000000000000000000000000007bffffffffffffffffffffffffffffffffffffffffffffffffffffffff19166020820180517bffffffffffffffffffffffffffffffffffffffffffffffffffffffff838183161783525050505060405161147d919061244c565b600060405180830381855af49150503d80600081146114b8576040519150601f19603f3d011682016040523d82523d6000602084013e6114bd565b606091505b509150915081611502576040517f08c379a00000000000000000000000000000000000000000000000000000000081526004016114f9906124fb565b60405180910390fd5b808060200190518101906115169190612559565b95505050505050919050565b806003600085815260200190815260200160002060008473ffffffffffffffffffffffffffffffffffffffff1673ffffffffffffffffffffffffffffffffffffffff16815260200190815260200160002060006101000a81548173ffffffffffffffffffffffffffffffffffffffff021916908373ffffffffffffffffffffffffffffffffffffffff160217905550816004600085815260200190815260200160002060008373ffffffffffffffffffffffffffffffffffffffff1673ffffffffffffffffffffffffffffffffffffffff16815260200190815260200160002060006101000a81548173ffffffffffffffffffffffffffffffffffffffff021916908373ffffffffffffffffffffffffffffffffffffffff160217905550505050565b61164d611787565b73ffffffffffffffffffffffffffffffffffffffff1661166b610a71565b73ffffffffffffffffffffffffffffffffffffffff16146116c1576040517f08c379a00000000000000000000000000000000000000000000000000000000081526004016116b8906125d2565b60405180910390fd5b565b60008060009054906101000a900473ffffffffffffffffffffffffffffffffffffffff169050816000806101000a81548173ffffffffffffffffffffffffffffffffffffffff021916908373ffffffffffffffffffffffffffffffffffffffff1602179055508173ffffffffffffffffffffffffffffffffffffffff168173ffffffffffffffffffffffffffffffffffffffff167f8be0079c531659141344cd1fd0a4f28419497f9722a3daafe3b4186f6b6457e060405160405180910390a35050565b600033905090565b6000604051905090565b600080fd5b600080fd5b600073ffffffffffffffffffffffffffffffffffffffff82169050919050565b60006117ce826117a3565b9050919050565b6117de816117c3565b81146117e957600080fd5b50565b6000813590506117fb816117d5565b92915050565b6000819050919050565b61181481611801565b811461181f57600080fd5b50565b6000813590506118318161180b565b92915050565b6000806040838503121561184e5761184d611799565b5b600061185c858286016117ec565b925050602061186d85828601611822565b9150509250929050565b6000806000806080858703121561189157611890611799565b5b600061189f878288016117ec565b94505060206118b087828801611822565b93505060406118c1878288016117ec565b92505060606118d287828801611822565b91505092959194509250565b6000806000606084860312156118f7576118f6611799565b5b6000611905868287016117ec565b935050602061191686828701611822565b9250506040611927868287016117ec565b9150509250925092565b61193a81611801565b82525050565b60006020820190506119556000830184611931565b92915050565b6000806040838503121561197257611971611799565b5b600061198085828601611822565b9250506020611991858286016117ec565b9150509250929050565b6119a4816117c3565b82525050565b60006020820190506119bf600083018461199b565b92915050565b6000602082840312156119db576119da611799565b5b60006119e9848285016117ec565b91505092915050565b60008060008060808587031215611a0c57611a0b611799565b5b6000611a1a878288016117ec565b9450506020611a2b87828801611822565b9350506040611a3c87828801611822565b9250506060611a4d878288016117ec565b91505092959194509250565b600080600060608486031215611a7257611a71611799565b5b6000611a80868287016117ec565b9350506020611a91868287016117ec565b9250506040611aa286828701611822565b9150509250925092565b600060ff82169050919050565b611ac281611aac565b8114611acd57600080fd5b50565b600081359050611adf81611ab9565b92915050565b600060208284031215611afb57611afa611799565b5b6000611b0984828501611ad0565b91505092915050565b6000819050919050565b6000611b37611b32611b2d846117a3565b611b12565b6117a3565b9050919050565b6000611b4982611b1c565b9050919050565b6000611b5b82611b3e565b9050919050565b611b6b81611b50565b82525050565b6000602082019050611b866000830184611b62565b92915050565b60008060408385031215611ba357611ba2611799565b5b6000611bb1858286016117ec565b9250506020611bc2858286016117ec565b9150509250929050565b600082825260208201905092915050565b7f4272696467653a20546f6b656e20616464726573732063616e6e6f742062652060008201527f746865206e756c6c206164647265737300000000000000000000000000000000602082015250565b6000611c39603083611bcc565b9150611c4482611bdd565b604082019050919050565b60006020820190508181036000830152611c6881611c2c565b9050919050565b7f4272696467653a20636861696e49642068617320746f2062652067726561746560008201527f72207468616e2030000000000000000000000000000000000000000000000000602082015250565b6000611ccb602883611bcc565b9150611cd682611c6f565b604082019050919050565b60006020820190508181036000830152611cfa81611cbe565b9050919050565b7f4272696467653a206e6f20636c61696d61626c6520746f6b656e000000000000600082015250565b6000611d37601a83611bcc565b9150611d4282611d01565b602082019050919050565b60006020820190508181036000830152611d6681611d2a565b9050919050565b6000604082019050611d82600083018561199b565b611d8f6020830184611931565b9392505050565b6000606082019050611dab600083018661199b565b611db8602083018561199b565b611dc56040830184611931565b949350505050565b7f4e487b7100000000000000000000000000000000000000000000000000000000600052601160045260246000fd5b6000611e0782611801565b9150611e1283611801565b9250828201905080821115611e2a57611e29611dcd565b5b92915050565b7f4272696467653a20416d6f756e74206d7573742062652067726561746572207460008201527f68616e2030000000000000000000000000000000000000000000000000000000602082015250565b6000611e8c602583611bcc565b9150611e9782611e30565b604082019050919050565b60006020820190508181036000830152611ebb81611e7f565b9050919050565b7f4272696467653a2054617267657420616464726573732063616e6e6f7420626560008201527f20746865206e756c6c2061646472657373000000000000000000000000000000602082015250565b6000611f1e603183611bcc565b9150611f2982611ec2565b604082019050919050565b60006020820190508181036000830152611f4d81611f11565b9050919050565b6000611f5f82611801565b9150611f6a83611801565b9250828202611f7881611801565b91508282048414831517611f8f57611f8e611dcd565b5b5092915050565b7f4e487b7100000000000000000000000000000000000000000000000000000000600052601260045260246000fd5b6000611fd082611801565b9150611fdb83611801565b925082611feb57611fea611f96565b5b828204905092915050565b600061200182611801565b915061200c83611801565b925082820390508181111561202457612023611dcd565b5b92915050565b60008115159050919050565b61203f8161202a565b811461204a57600080fd5b50565b60008151905061205c81612036565b92915050565b60006020828403121561207857612077611799565b5b60006120868482850161204d565b91505092915050565b600060a0820190506120a4600083018861199b565b6120b1602083018761199b565b6120be6040830186611931565b6120cb6060830185611931565b6120d8608083018461199b565b9695505050505050565b7f4272696467653a206e6f2072656c65617361626c6520746f6b656e7300000000600082015250565b6000612118601c83611bcc565b9150612123826120e2565b602082019050919050565b600060208201905081810360008301526121478161210b565b9050919050565b7f4f776e61626c653a206e6577206f776e657220697320746865207a65726f206160008201527f6464726573730000000000000000000000000000000000000000000000000000602082015250565b60006121aa602683611bcc565b91506121b58261214e565b604082019050919050565b600060208201905081810360008301526121d98161219d565b9050919050565b600080fd5b600080fd5b6000601f19601f8301169050919050565b7f4e487b7100000000000000000000000000000000000000000000000000000000600052604160045260246000fd5b612233826121ea565b810181811067ffffffffffffffff82111715612252576122516121fb565b5b80604052505050565b600061226561178f565b9050612271828261222a565b919050565b600067ffffffffffffffff821115612291576122906121fb565b5b61229a826121ea565b9050602081019050919050565b60005b838110156122c55780820151818401526020810190506122aa565b60008484015250505050565b60006122e46122df84612276565b61225b565b905082815260208101848484011115612300576122ff6121e5565b5b61230b8482856122a7565b509392505050565b600082601f830112612328576123276121e0565b5b81516123388482602086016122d1565b91505092915050565b60006020828403121561235757612356611799565b5b600082015167ffffffffffffffff8111156123755761237461179e565b5b61238184828501612313565b91505092915050565b600081519050919050565b60006123a08261238a565b6123aa8185611bcc565b93506123ba8185602086016122a7565b6123c3816121ea565b840191505092915050565b600060408201905081810360008301526123e88185612395565b905081810360208301526123fc8184612395565b90509392505050565b600081519050919050565b600081905092915050565b600061242682612405565b6124308185612410565b93506124408185602086016122a7565b80840191505092915050565b6000612458828461241b565b915081905092915050565b7f4661696c656420746f2063616c6c2063726561746557726170706564546f6b6560008201527f6e2066756e6374696f6e20696e2057726170706564546f6b656e466163746f7260208201527f7900000000000000000000000000000000000000000000000000000000000000604082015250565b60006124e5604183611bcc565b91506124f082612463565b606082019050919050565b60006020820190508181036000830152612514816124d8565b9050919050565b6000612526826117a3565b9050919050565b6125368161251b565b811461254157600080fd5b50565b6000815190506125538161252d565b92915050565b60006020828403121561256f5761256e611799565b5b600061257d84828501612544565b91505092915050565b7f4f776e61626c653a2063616c6c6572206973206e6f7420746865206f776e6572600082015250565b60006125bc602083611bcc565b91506125c782612586565b602082019050919050565b600060208201905081810360008301526125eb816125af565b905091905056fea2646970667358221220b8a25efde4c3bfaf243303e60c41f32aeb01c3249ff57bb17e2791db224ebb1b64736f6c63430008120033",
    "linkReferences": {},
    "deployedLinkReferences": {}
}