{
  "_format": "hh-sol-artifact-1",
  "contractName": "Bridge",
  "sourceName": "contracts/bridge/Bridge.sol",
  "abi": [
    {
      "inputs": [
        {
          "internalType": "address",
          "name": "_wrappedTokenFactory",
          "type": "address"
        }
      ],
      "stateMutability": "nonpayable",
      "type": "constructor"
    },
    {
      "anonymous": false,
      "inputs": [
        {
          "indexed": true,
          "internalType": "address",
          "name": "previousOwner",
          "type": "address"
        },
        {
          "indexed": true,
          "internalType": "address",
          "name": "newOwner",
          "type": "address"
        }
      ],
      "name": "OwnershipTransferred",
      "type": "event"
    },
    {
      "anonymous": false,
      "inputs": [
        {
          "indexed": false,
          "internalType": "address",
          "name": "burnerAddress",
          "type": "address"
        },
        {
          "indexed": false,
          "internalType": "address",
          "name": "originTokenAddress",
          "type": "address"
        },
        {
          "indexed": false,
          "internalType": "uint256",
          "name": "amount",
          "type": "uint256"
        },
        {
          "indexed": false,
          "internalType": "uint256",
          "name": "targetChainId",
          "type": "uint256"
        },
        {
          "indexed": false,
          "internalType": "address",
          "name": "releaserAddress",
          "type": "address"
        }
      ],
      "name": "TokenBurned",
      "type": "event"
    },
    {
      "anonymous": false,
      "inputs": [
        {
          "indexed": false,
          "internalType": "address",
          "name": "claimerAddress",
          "type": "address"
        },
        {
          "indexed": false,
          "internalType": "address",
          "name": "wrappedTokenAddress",
          "type": "address"
        },
        {
          "indexed": false,
          "internalType": "uint256",
          "name": "amount",
          "type": "uint256"
        }
      ],
      "name": "TokenClaimed",
      "type": "event"
    },
    {
      "anonymous": false,
      "inputs": [
        {
          "indexed": false,
          "internalType": "address",
          "name": "lockerAddress",
          "type": "address"
        },
        {
          "indexed": false,
          "internalType": "address",
          "name": "originTokenAddress",
          "type": "address"
        },
        {
          "indexed": false,
          "internalType": "uint256",
          "name": "amount",
          "type": "uint256"
        },
        {
          "indexed": false,
          "internalType": "uint256",
          "name": "targetChainId",
          "type": "uint256"
        },
        {
          "indexed": false,
          "internalType": "address",
          "name": "claimerAddress",
          "type": "address"
        }
      ],
      "name": "TokenLocked",
      "type": "event"
    },
    {
      "anonymous": false,
      "inputs": [
        {
          "indexed": false,
          "internalType": "address",
          "name": "releaserAddress",
          "type": "address"
        },
        {
          "indexed": false,
          "internalType": "address",
          "name": "originTokenAddress",
          "type": "address"
        },
        {
          "indexed": false,
          "internalType": "uint256",
          "name": "amount",
          "type": "uint256"
        }
      ],
      "name": "TokenReleased",
      "type": "event"
    },
    {
      "inputs": [
        {
          "internalType": "address",
          "name": "claimer",
          "type": "address"
        },
        {
          "internalType": "uint256",
          "name": "sourceChainId",
          "type": "uint256"
        },
        {
          "internalType": "address",
          "name": "token",
          "type": "address"
        },
        {
          "internalType": "uint256",
          "name": "amount",
          "type": "uint256"
        }
      ],
      "name": "addClaimableToken",
      "outputs": [],
      "stateMutability": "nonpayable",
      "type": "function"
    },
    {
      "inputs": [
        {
          "internalType": "address",
          "name": "releaser",
          "type": "address"
        },
        {
          "internalType": "address",
          "name": "token",
          "type": "address"
        },
        {
          "internalType": "uint256",
          "name": "amount",
          "type": "uint256"
        }
      ],
      "name": "addReleasableToken",
      "outputs": [],
      "stateMutability": "nonpayable",
      "type": "function"
    },
    {
      "inputs": [
        {
          "internalType": "address",
          "name": "wrappedToken",
          "type": "address"
        },
        {
          "internalType": "uint256",
          "name": "amount",
          "type": "uint256"
        },
        {
          "internalType": "uint256",
          "name": "targetChainId",
          "type": "uint256"
        },
        {
          "internalType": "address",
          "name": "targetAddress",
          "type": "address"
        }
      ],
      "name": "burnToken",
      "outputs": [],
      "stateMutability": "nonpayable",
      "type": "function"
    },
    {
      "inputs": [
        {
          "internalType": "address",
          "name": "token",
          "type": "address"
        },
        {
          "internalType": "uint256",
          "name": "sourceChainId",
          "type": "uint256"
        }
      ],
      "name": "claimToken",
      "outputs": [],
      "stateMutability": "nonpayable",
      "type": "function"
    },
    {
      "inputs": [
        {
          "internalType": "address",
          "name": "",
          "type": "address"
        },
        {
          "internalType": "uint256",
          "name": "",
          "type": "uint256"
        },
        {
          "internalType": "address",
          "name": "",
          "type": "address"
        }
      ],
      "name": "claimableTokens",
      "outputs": [
        {
          "internalType": "uint256",
          "name": "",
          "type": "uint256"
        }
      ],
      "stateMutability": "view",
      "type": "function"
    },
    {
      "inputs": [
        {
          "internalType": "address",
          "name": "",
          "type": "address"
        }
      ],
      "name": "feeBalances",
      "outputs": [
        {
          "internalType": "uint256",
          "name": "",
          "type": "uint256"
        }
      ],
      "stateMutability": "view",
      "type": "function"
    },
    {
      "inputs": [
        {
          "internalType": "address",
          "name": "token",
          "type": "address"
        },
        {
          "internalType": "uint256",
          "name": "amount",
          "type": "uint256"
        },
        {
          "internalType": "uint256",
          "name": "targetChainId",
          "type": "uint256"
        },
        {
          "internalType": "address",
          "name": "targetAddress",
          "type": "address"
        }
      ],
      "name": "lockToken",
      "outputs": [],
      "stateMutability": "nonpayable",
      "type": "function"
    },
    {
      "inputs": [
        {
          "internalType": "uint256",
          "name": "",
          "type": "uint256"
        },
        {
          "internalType": "address",
          "name": "",
          "type": "address"
        }
      ],
      "name": "originTokenByWrappedTokenByChain",
      "outputs": [
        {
          "internalType": "address",
          "name": "",
          "type": "address"
        }
      ],
      "stateMutability": "view",
      "type": "function"
    },
    {
      "inputs": [],
      "name": "owner",
      "outputs": [
        {
          "internalType": "address",
          "name": "",
          "type": "address"
        }
      ],
      "stateMutability": "view",
      "type": "function"
    },
    {
      "inputs": [
        {
          "internalType": "address",
          "name": "",
          "type": "address"
        },
        {
          "internalType": "address",
          "name": "",
          "type": "address"
        }
      ],
      "name": "releasableTokens",
      "outputs": [
        {
          "internalType": "uint256",
          "name": "",
          "type": "uint256"
        }
      ],
      "stateMutability": "view",
      "type": "function"
    },
    {
      "inputs": [
        {
          "internalType": "address",
          "name": "originalToken",
          "type": "address"
        }
      ],
      "name": "releaseToken",
      "outputs": [],
      "stateMutability": "nonpayable",
      "type": "function"
    },
    {
      "inputs": [],
      "name": "renounceOwnership",
      "outputs": [],
      "stateMutability": "nonpayable",
      "type": "function"
    },
    {
      "inputs": [
        {
          "internalType": "uint8",
          "name": "_feePercentage",
          "type": "uint8"
        }
      ],
      "name": "setFeePercentage",
      "outputs": [],
      "stateMutability": "nonpayable",
      "type": "function"
    },
    {
      "inputs": [
        {
          "internalType": "address",
          "name": "newOwner",
          "type": "address"
        }
      ],
      "name": "transferOwnership",
      "outputs": [],
      "stateMutability": "nonpayable",
      "type": "function"
    },
    {
      "inputs": [
        {
          "internalType": "address",
          "name": "token",
          "type": "address"
        },
        {
          "internalType": "uint256",
          "name": "amount",
          "type": "uint256"
        },
        {
          "internalType": "address",
          "name": "recipient",
          "type": "address"
        }
      ],
      "name": "withdrawTokenFee",
      "outputs": [],
      "stateMutability": "nonpayable",
      "type": "function"
    },
    {
      "inputs": [
        {
          "internalType": "uint256",
          "name": "",
          "type": "uint256"
        },
        {
          "internalType": "address",
          "name": "",
          "type": "address"
        }
      ],
      "name": "wrappedTokenByOriginTokenByChain",
      "outputs": [
        {
          "internalType": "address",
          "name": "",
          "type": "address"
        }
      ],
      "stateMutability": "view",
      "type": "function"
    },
    {
      "inputs": [],
      "name": "wrappedTokenFactory",
      "outputs": [
        {
          "internalType": "contract IWrappedTokenFactory",
          "name": "",
          "type": "address"
        }
      ],
      "stateMutability": "view",
      "type": "function"
    }
  ],
  "bytecode": "0x60806040523480156200001157600080fd5b50604051620026cf380380620026cf8339818101604052810190620000379190620001d5565b620000576200004b6200009f60201b60201c565b620000a760201b60201c565b80600160006101000a81548173ffffffffffffffffffffffffffffffffffffffff021916908373ffffffffffffffffffffffffffffffffffffffff1602179055505062000207565b600033905090565b60008060009054906101000a900473ffffffffffffffffffffffffffffffffffffffff169050816000806101000a81548173ffffffffffffffffffffffffffffffffffffffff021916908373ffffffffffffffffffffffffffffffffffffffff1602179055508173ffffffffffffffffffffffffffffffffffffffff168173ffffffffffffffffffffffffffffffffffffffff167f8be0079c531659141344cd1fd0a4f28419497f9722a3daafe3b4186f6b6457e060405160405180910390a35050565b600080fd5b600073ffffffffffffffffffffffffffffffffffffffff82169050919050565b60006200019d8262000170565b9050919050565b620001af8162000190565b8114620001bb57600080fd5b50565b600081519050620001cf81620001a4565b92915050565b600060208284031215620001ee57620001ed6200016b565b5b6000620001fe84828501620001be565b91505092915050565b6124b880620002176000396000f3fe608060405234801561001057600080fd5b506004361061010b5760003560e01c806396e22a74116100a2578063d1e3acaa11610071578063d1e3acaa146102a0578063e545f941146102bc578063eaa7c826146102d8578063f2fde38b146102f6578063f602614e146103125761010b565b806396e22a741461021c5780639deac6641461024c578063a5766aa614610268578063b91d188f146102845761010b565b806353afc025116100de57806353afc025146101a85780635f101dba146101d8578063715018a6146101f45780638da5cb5b146101fe5761010b565b80631698755f1461011057806323b859dd1461012c57806327b00a4b14610148578063374efba414610178575b600080fd5b61012a600480360381019061012591906117c3565b610342565b005b61014660048036038101906101419190611803565b6106ac565b005b610162600480360381019061015d919061186a565b61075e565b60405161016f91906118cc565b60405180910390f35b610192600480360381019061018d91906118e7565b610790565b60405161019f9190611936565b60405180910390f35b6101c260048036038101906101bd9190611951565b6107d2565b6040516101cf91906118cc565b60405180910390f35b6101f260048036038101906101ed919061197e565b6107ea565b005b6101fc610a6d565b005b610206610a81565b6040516102139190611936565b60405180910390f35b610236600480360381019061023191906118e7565b610aaa565b6040516102439190611936565b60405180910390f35b610266600480360381019061026191906119e5565b610aec565b005b610282600480360381019061027d9190611a71565b610b8c565b005b61029e6004803603810190610299919061186a565b610bb2565b005b6102ba60048036038101906102b5919061197e565b610c4d565b005b6102d660048036038101906102d19190611951565b610edd565b005b6102e0611162565b6040516102ed9190611afd565b60405180910390f35b610310600480360381019061030b9190611951565b611188565b005b61032c60048036038101906103279190611b18565b61120c565b60405161033991906118cc565b60405180910390f35b81600073ffffffffffffffffffffffffffffffffffffffff168173ffffffffffffffffffffffffffffffffffffffff1614156103b3576040517f08c379a00000000000000000000000000000000000000000000000000000000081526004016103aa90611bdb565b60405180910390fd5b81600081116103f7576040517f08c379a00000000000000000000000000000000000000000000000000000000081526004016103ee90611c6d565b60405180910390fd5b6000600560003373ffffffffffffffffffffffffffffffffffffffff1673ffffffffffffffffffffffffffffffffffffffff168152602001908152602001600020600085815260200190815260200160002060008673ffffffffffffffffffffffffffffffffffffffff1673ffffffffffffffffffffffffffffffffffffffff168152602001908152602001600020549050600081116104cc576040517f08c379a00000000000000000000000000000000000000000000000000000000081526004016104c390611cd9565b60405180910390fd5b6104d68486611231565b6104f45760006104e5866112db565b90506104f28587836114ae565b505b60006003600086815260200190815260200160002060008773ffffffffffffffffffffffffffffffffffffffff1673ffffffffffffffffffffffffffffffffffffffff16815260200190815260200160002060009054906101000a900473ffffffffffffffffffffffffffffffffffffffff1690508073ffffffffffffffffffffffffffffffffffffffff166340c10f1933846040518363ffffffff1660e01b81526004016105a4929190611cf9565b600060405180830381600087803b1580156105be57600080fd5b505af11580156105d2573d6000803e3d6000fd5b505050506000600560003373ffffffffffffffffffffffffffffffffffffffff1673ffffffffffffffffffffffffffffffffffffffff168152602001908152602001600020600087815260200190815260200160002060008873ffffffffffffffffffffffffffffffffffffffff1673ffffffffffffffffffffffffffffffffffffffff168152602001908152602001600020819055507f4831bdd9dcf3048a28319ce81d3cab7a15366bcf449bc7803a539107440809cc33828460405161069c93929190611d22565b60405180910390a1505050505050565b6106b46115d1565b80600560008673ffffffffffffffffffffffffffffffffffffffff1673ffffffffffffffffffffffffffffffffffffffff168152602001908152602001600020600085815260200190815260200160002060008473ffffffffffffffffffffffffffffffffffffffff1673ffffffffffffffffffffffffffffffffffffffff16815260200190815260200160002060008282546107519190611d88565b9250508190555050505050565b600560205282600052604060002060205281600052604060002060205280600052604060002060009250925050505481565b60046020528160005260406000206020528060005260406000206000915091509054906101000a900473ffffffffffffffffffffffffffffffffffffffff1681565b60026020528060005260406000206000915090505481565b83600073ffffffffffffffffffffffffffffffffffffffff168173ffffffffffffffffffffffffffffffffffffffff16141561085b576040517f08c379a000000000000000000000000000000000000000000000000000000000815260040161085290611bdb565b60405180910390fd5b836000811161089f576040517f08c379a000000000000000000000000000000000000000000000000000000000815260040161089690611e50565b60405180910390fd5b83600081116108e3576040517f08c379a00000000000000000000000000000000000000000000000000000000081526004016108da90611c6d565b60405180910390fd5b83600073ffffffffffffffffffffffffffffffffffffffff168173ffffffffffffffffffffffffffffffffffffffff161415610954576040517f08c379a000000000000000000000000000000000000000000000000000000000815260040161094b90611ee2565b60405180910390fd5b60006064600060149054906101000a900460ff1660ff16896109769190611f02565b6109809190611f8b565b9050600081896109909190611fbc565b90508973ffffffffffffffffffffffffffffffffffffffff166323b872dd33308c6040518463ffffffff1660e01b81526004016109cf93929190611d22565b602060405180830381600087803b1580156109e957600080fd5b505af11580156109fd573d6000803e3d6000fd5b505050506040513d601f19601f82011682018060405250810190610a219190612028565b507f69c01c713122ce8d47ecc4120688912ca04f2f4622265494db0fc21dc81453de338b838b8b604051610a59959493929190612055565b60405180910390a150505050505050505050565b610a756115d1565b610a7f600061164f565b565b60008060009054906101000a900473ffffffffffffffffffffffffffffffffffffffff16905090565b60036020528160005260406000206020528060005260406000206000915091509054906101000a900473ffffffffffffffffffffffffffffffffffffffff1681565b610af46115d1565b80600660008573ffffffffffffffffffffffffffffffffffffffff1673ffffffffffffffffffffffffffffffffffffffff16815260200190815260200160002060008473ffffffffffffffffffffffffffffffffffffffff1673ffffffffffffffffffffffffffffffffffffffff1681526020019081526020016000206000828254610b809190611d88565b92505081905550505050565b610b946115d1565b80600060146101000a81548160ff021916908360ff16021790555050565b610bba6115d1565b8273ffffffffffffffffffffffffffffffffffffffff1663a9059cbb82846040518363ffffffff1660e01b8152600401610bf5929190611cf9565b602060405180830381600087803b158015610c0f57600080fd5b505af1158015610c23573d6000803e3d6000fd5b505050506040513d601f19601f82011682018060405250810190610c479190612028565b50505050565b83600073ffffffffffffffffffffffffffffffffffffffff168173ffffffffffffffffffffffffffffffffffffffff161415610cbe576040517f08c379a0000000000000000000000000000000000000000000000000000000008152600401610cb590611bdb565b60405180910390fd5b8360008111610d02576040517f08c379a0000000000000000000000000000000000000000000000000000000008152600401610cf990611e50565b60405180910390fd5b8360008111610d46576040517f08c379a0000000000000000000000000000000000000000000000000000000008152600401610d3d90611c6d565b60405180910390fd5b83600073ffffffffffffffffffffffffffffffffffffffff168173ffffffffffffffffffffffffffffffffffffffff161415610db7576040517f08c379a0000000000000000000000000000000000000000000000000000000008152600401610dae90611ee2565b60405180910390fd5b8773ffffffffffffffffffffffffffffffffffffffff16639dc29fac33896040518363ffffffff1660e01b8152600401610df2929190611cf9565b600060405180830381600087803b158015610e0c57600080fd5b505af1158015610e20573d6000803e3d6000fd5b505050507f1a5cf775fc8b36dc7c6ac43373161f43d8d77f9cedabcebfc24760831e787d41336004600089815260200190815260200160002060008b73ffffffffffffffffffffffffffffffffffffffff1673ffffffffffffffffffffffffffffffffffffffff16815260200190815260200160002060009054906101000a900473ffffffffffffffffffffffffffffffffffffffff16898989604051610ecb959493929190612055565b60405180910390a15050505050505050565b80600073ffffffffffffffffffffffffffffffffffffffff168173ffffffffffffffffffffffffffffffffffffffff161415610f4e576040517f08c379a0000000000000000000000000000000000000000000000000000000008152600401610f4590611bdb565b60405180910390fd5b6000600660003373ffffffffffffffffffffffffffffffffffffffff1673ffffffffffffffffffffffffffffffffffffffff16815260200190815260200160002060008473ffffffffffffffffffffffffffffffffffffffff1673ffffffffffffffffffffffffffffffffffffffff16815260200190815260200160002054905060008111611012576040517f08c379a0000000000000000000000000000000000000000000000000000000008152600401611009906120f4565b60405180910390fd5b8273ffffffffffffffffffffffffffffffffffffffff1663a9059cbb33836040518363ffffffff1660e01b815260040161104d929190611cf9565b602060405180830381600087803b15801561106757600080fd5b505af115801561107b573d6000803e3d6000fd5b505050506040513d601f19601f8201168201806040525081019061109f9190612028565b506000600660003373ffffffffffffffffffffffffffffffffffffffff1673ffffffffffffffffffffffffffffffffffffffff16815260200190815260200160002060008573ffffffffffffffffffffffffffffffffffffffff1673ffffffffffffffffffffffffffffffffffffffff168152602001908152602001600020819055507fa5fa891a402945a5916b3b11763e3446525ced0e1d55a45cb3d3024f22ce448633848360405161115593929190611d22565b60405180910390a1505050565b600160009054906101000a900473ffffffffffffffffffffffffffffffffffffffff1681565b6111906115d1565b600073ffffffffffffffffffffffffffffffffffffffff168173ffffffffffffffffffffffffffffffffffffffff161415611200576040517f08c379a00000000000000000000000000000000000000000000000000000000081526004016111f790612186565b60405180910390fd5b6112098161164f565b50565b6006602052816000526040600020602052806000526040600020600091509150505481565b60008073ffffffffffffffffffffffffffffffffffffffff166003600085815260200190815260200160002060008473ffffffffffffffffffffffffffffffffffffffff1673ffffffffffffffffffffffffffffffffffffffff16815260200190815260200160002060009054906101000a900473ffffffffffffffffffffffffffffffffffffffff1673ffffffffffffffffffffffffffffffffffffffff161415905092915050565b60008082905060008173ffffffffffffffffffffffffffffffffffffffff166306fdde036040518163ffffffff1660e01b815260040160006040518083038186803b15801561132957600080fd5b505afa15801561133d573d6000803e3d6000fd5b505050506040513d6000823e3d601f19601f820116820180604052508101906113669190612310565b905060008273ffffffffffffffffffffffffffffffffffffffff166395d89b416040518163ffffffff1660e01b815260040160006040518083038186803b1580156113b057600080fd5b505afa1580156113c4573d6000803e3d6000fd5b505050506040513d6000823e3d601f19601f820116820180604052508101906113ed9190612310565b90506000600160009054906101000a900473ffffffffffffffffffffffffffffffffffffffff1673ffffffffffffffffffffffffffffffffffffffff1663f7c43b1884846040518363ffffffff1660e01b815260040161144e92919061239d565b602060405180830381600087803b15801561146857600080fd5b505af115801561147c573d6000803e3d6000fd5b505050506040513d601f19601f820116820180604052508101906114a091906123e9565b905080945050505050919050565b806003600085815260200190815260200160002060008473ffffffffffffffffffffffffffffffffffffffff1673ffffffffffffffffffffffffffffffffffffffff16815260200190815260200160002060006101000a81548173ffffffffffffffffffffffffffffffffffffffff021916908373ffffffffffffffffffffffffffffffffffffffff160217905550816004600085815260200190815260200160002060008373ffffffffffffffffffffffffffffffffffffffff1673ffffffffffffffffffffffffffffffffffffffff16815260200190815260200160002060006101000a81548173ffffffffffffffffffffffffffffffffffffffff021916908373ffffffffffffffffffffffffffffffffffffffff160217905550505050565b6115d9611713565b73ffffffffffffffffffffffffffffffffffffffff166115f7610a81565b73ffffffffffffffffffffffffffffffffffffffff161461164d576040517f08c379a000000000000000000000000000000000000000000000000000000000815260040161164490612462565b60405180910390fd5b565b60008060009054906101000a900473ffffffffffffffffffffffffffffffffffffffff169050816000806101000a81548173ffffffffffffffffffffffffffffffffffffffff021916908373ffffffffffffffffffffffffffffffffffffffff1602179055508173ffffffffffffffffffffffffffffffffffffffff168173ffffffffffffffffffffffffffffffffffffffff167f8be0079c531659141344cd1fd0a4f28419497f9722a3daafe3b4186f6b6457e060405160405180910390a35050565b600033905090565b6000604051905090565b600080fd5b600080fd5b600073ffffffffffffffffffffffffffffffffffffffff82169050919050565b600061175a8261172f565b9050919050565b61176a8161174f565b811461177557600080fd5b50565b60008135905061178781611761565b92915050565b6000819050919050565b6117a08161178d565b81146117ab57600080fd5b50565b6000813590506117bd81611797565b92915050565b600080604083850312156117da576117d9611725565b5b60006117e885828601611778565b92505060206117f9858286016117ae565b9150509250929050565b6000806000806080858703121561181d5761181c611725565b5b600061182b87828801611778565b945050602061183c878288016117ae565b935050604061184d87828801611778565b925050606061185e878288016117ae565b91505092959194509250565b60008060006060848603121561188357611882611725565b5b600061189186828701611778565b93505060206118a2868287016117ae565b92505060406118b386828701611778565b9150509250925092565b6118c68161178d565b82525050565b60006020820190506118e160008301846118bd565b92915050565b600080604083850312156118fe576118fd611725565b5b600061190c858286016117ae565b925050602061191d85828601611778565b9150509250929050565b6119308161174f565b82525050565b600060208201905061194b6000830184611927565b92915050565b60006020828403121561196757611966611725565b5b600061197584828501611778565b91505092915050565b6000806000806080858703121561199857611997611725565b5b60006119a687828801611778565b94505060206119b7878288016117ae565b93505060406119c8878288016117ae565b92505060606119d987828801611778565b91505092959194509250565b6000806000606084860312156119fe576119fd611725565b5b6000611a0c86828701611778565b9350506020611a1d86828701611778565b9250506040611a2e868287016117ae565b9150509250925092565b600060ff82169050919050565b611a4e81611a38565b8114611a5957600080fd5b50565b600081359050611a6b81611a45565b92915050565b600060208284031215611a8757611a86611725565b5b6000611a9584828501611a5c565b91505092915050565b6000819050919050565b6000611ac3611abe611ab98461172f565b611a9e565b61172f565b9050919050565b6000611ad582611aa8565b9050919050565b6000611ae782611aca565b9050919050565b611af781611adc565b82525050565b6000602082019050611b126000830184611aee565b92915050565b60008060408385031215611b2f57611b2e611725565b5b6000611b3d85828601611778565b9250506020611b4e85828601611778565b9150509250929050565b600082825260208201905092915050565b7f4272696467653a20546f6b656e20616464726573732063616e6e6f742062652060008201527f746865206e756c6c206164647265737300000000000000000000000000000000602082015250565b6000611bc5603083611b58565b9150611bd082611b69565b604082019050919050565b60006020820190508181036000830152611bf481611bb8565b9050919050565b7f4272696467653a20636861696e49642068617320746f2062652067726561746560008201527f72207468616e2030000000000000000000000000000000000000000000000000602082015250565b6000611c57602883611b58565b9150611c6282611bfb565b604082019050919050565b60006020820190508181036000830152611c8681611c4a565b9050919050565b7f4272696467653a206e6f20636c61696d61626c6520746f6b656e000000000000600082015250565b6000611cc3601a83611b58565b9150611cce82611c8d565b602082019050919050565b60006020820190508181036000830152611cf281611cb6565b9050919050565b6000604082019050611d0e6000830185611927565b611d1b60208301846118bd565b9392505050565b6000606082019050611d376000830186611927565b611d446020830185611927565b611d5160408301846118bd565b949350505050565b7f4e487b7100000000000000000000000000000000000000000000000000000000600052601160045260246000fd5b6000611d938261178d565b9150611d9e8361178d565b9250827fffffffffffffffffffffffffffffffffffffffffffffffffffffffffffffffff03821115611dd357611dd2611d59565b5b828201905092915050565b7f4272696467653a20416d6f756e74206d7573742062652067726561746572207460008201527f68616e2030000000000000000000000000000000000000000000000000000000602082015250565b6000611e3a602583611b58565b9150611e4582611dde565b604082019050919050565b60006020820190508181036000830152611e6981611e2d565b9050919050565b7f4272696467653a2054617267657420616464726573732063616e6e6f7420626560008201527f20746865206e756c6c2061646472657373000000000000000000000000000000602082015250565b6000611ecc603183611b58565b9150611ed782611e70565b604082019050919050565b60006020820190508181036000830152611efb81611ebf565b9050919050565b6000611f0d8261178d565b9150611f188361178d565b9250817fffffffffffffffffffffffffffffffffffffffffffffffffffffffffffffffff0483118215151615611f5157611f50611d59565b5b828202905092915050565b7f4e487b7100000000000000000000000000000000000000000000000000000000600052601260045260246000fd5b6000611f968261178d565b9150611fa18361178d565b925082611fb157611fb0611f5c565b5b828204905092915050565b6000611fc78261178d565b9150611fd28361178d565b925082821015611fe557611fe4611d59565b5b828203905092915050565b60008115159050919050565b61200581611ff0565b811461201057600080fd5b50565b60008151905061202281611ffc565b92915050565b60006020828403121561203e5761203d611725565b5b600061204c84828501612013565b91505092915050565b600060a08201905061206a6000830188611927565b6120776020830187611927565b61208460408301866118bd565b61209160608301856118bd565b61209e6080830184611927565b9695505050505050565b7f4272696467653a206e6f2072656c65617361626c6520746f6b656e0000000000600082015250565b60006120de601b83611b58565b91506120e9826120a8565b602082019050919050565b6000602082019050818103600083015261210d816120d1565b9050919050565b7f4f776e61626c653a206e6577206f776e657220697320746865207a65726f206160008201527f6464726573730000000000000000000000000000000000000000000000000000602082015250565b6000612170602683611b58565b915061217b82612114565b604082019050919050565b6000602082019050818103600083015261219f81612163565b9050919050565b600080fd5b600080fd5b6000601f19601f8301169050919050565b7f4e487b7100000000000000000000000000000000000000000000000000000000600052604160045260246000fd5b6121f9826121b0565b810181811067ffffffffffffffff82111715612218576122176121c1565b5b80604052505050565b600061222b61171b565b905061223782826121f0565b919050565b600067ffffffffffffffff821115612257576122566121c1565b5b612260826121b0565b9050602081019050919050565b60005b8381101561228b578082015181840152602081019050612270565b8381111561229a576000848401525b50505050565b60006122b36122ae8461223c565b612221565b9050828152602081018484840111156122cf576122ce6121ab565b5b6122da84828561226d565b509392505050565b600082601f8301126122f7576122f66121a6565b5b81516123078482602086016122a0565b91505092915050565b60006020828403121561232657612325611725565b5b600082015167ffffffffffffffff8111156123445761234361172a565b5b612350848285016122e2565b91505092915050565b600081519050919050565b600061236f82612359565b6123798185611b58565b935061238981856020860161226d565b612392816121b0565b840191505092915050565b600060408201905081810360008301526123b78185612364565b905081810360208301526123cb8184612364565b90509392505050565b6000815190506123e381611761565b92915050565b6000602082840312156123ff576123fe611725565b5b600061240d848285016123d4565b91505092915050565b7f4f776e61626c653a2063616c6c6572206973206e6f7420746865206f776e6572600082015250565b600061244c602083611b58565b915061245782612416565b602082019050919050565b6000602082019050818103600083015261247b8161243f565b905091905056fea2646970667358221220d9c157e063cd3e4817f6e521daf8b48029120ceaafa7b20af7ccb543a6d10d0f64736f6c63430008090033",
  "linkReferences": {},
  "deployedLinkReferences": {}
}